:020000040800F2
:10000000800900204501000821200008392000084F
:100010003D200008412000084520000800000000A5
:10002000000000000000000000000000492000085F
:100030004B200008000000004D2000084F20000861
:100040005F0100085F0100085F010008232000082D
:100050005F0100085F0100085F0100085F01000800
:100060005F0100085F0100085F0100085F010008F0
:100070005F0100085F0100085F0100085F010008E0
:100080005F0100085F0100085F0100085F010008D0
:100090005F0100085F0100085F0100085F010008C0
:1000A0005F0100085F0100085F0100085F010008B0
:1000B0005F0100085F0100085F0100085F010008A0
:1000C0005F0100085F0100085F0100085F01000890
:1000D0005F010008112A0008334C00084B4B000850
:1000E0005F0100085F0100085F0100085F01000870
:1000F0005F0100085F0100085F0100085F01000860
:100100005F0100085F0100085F0100085F0100084F
:100110003F4F0008454D00085F0100085F010008DF
:100120005F0100085F0100085F0100085F0100082F
:10013000DFF80CD005F08EF800480047CD2A000803
:10014000800900200648804706480047FEE7FEE792
:10015000FEE7FEE7FEE7FEE7FEE7FEE7FEE7FEE777
:1001600047020008310100080CB500200190009002
:100170006C48006840F480306A49086000BF6948F4
:10018000006800F4003000900198401C0190009835
:1001900018B90198B0F5A06FF1D16248006800F479
:1001A000003010B10120009001E000200090009884
:1001B000012843D15C48006840F010005A490860AB
:1001C0000846006820F0030008600846006840F018
:1001D0000200086053484068524948600846406839
:1001E00048600846406840F48060486008464068BF
:1001F00020F47C1048600846406840F4E8104860ED
:100200000846006840F08070086000BF45480068FC
:1002100000F000700028F9D04248406820F0030048
:10022000404948600846406840F00200486000BF0E
:100230003C48406800F00C000828F9D10CBD10B50E
:10024000FFF792FF10BD10B53648006840F001007E
:1002500034490860084640683449084031494860DC
:1002600008460068324908402E4908600846006880
:1002700020F4802008600846406820F4FE004860B2
:100280004FF41F008860FFF7DAFF4FF00060294944
:10029000086010BD10B5002100200022214B5B68D2
:1002A00003F00C0121B1042906D0082928D107E068
:1002B000214B224C236027E01F4B204C236023E07E
:1002C000184B5B6803F47010164B5B6803F48032C4
:1002D000022303EB904022B9194B4343174C236090
:1002E0000DE0104B5B6803F4003323B1144B434320
:1002F000124C236003E0104B4343104C236003E097
:100300000D4B0E4C236000BF00BF064B5B68C3F370
:1003100003130C4CE15C094B1B68CB40074C23607A
:1003200010BD000000100240002002400000FFF855
:10033000FFFFF6FE08ED00E000127A00000000204A
:1003400000093D000400002031490143314A116099
:10035000704770B5002100230F22C47804B32D4CE0
:10036000246804F4E064C4F5E064210AC1F10403E4
:10037000CA40447804FA03F1847814402143090107
:10038000254C0678A155047804F01F050124AC40E3
:1003900005786D11AD0005F1E025C5F8004109E0D3
:1003A000047804F01F050124AC401C4D067876113A
:1003B00045F8264070BD1A4A0A400243154B1B1FE0
:1003C0001A60704739B1134A121D12680243114B6B
:1003D0001B1D1A6006E00F4A121D126882430D4B66
:1003E0001B1D1A607047042808D14FF0E0210969ED
:1003F00041F004014FF0E022116107E04FF0E021ED
:10040000096921F004014FF0E022116170470000FA
:100410000000FA050CED00E000E400E080E100E0FF
:1004200080FFFF1F10B5012000F014FC002000F039
:1004300011FC10BD2A49086070472949091F08604E
:100440007047274984310860704701460020254ADB
:1004500010884FF67F4210400843224A10807047B0
:10046000014600201F4A10884FF680721040084352
:100470001C4A1080704708B500220092194A2C3A95
:100480000092009A02440092009A116008BD08B5DB
:1004900001460020009013482C3800900098084432
:1004A00000900098008808BD0D489C300068C0B2DC
:1004B00070470C480830008840F0010009490831B5
:1004C000088070470648A0300068C0B270470548F1
:1004D0000830008840F00200024908310880704767
:1004E00004860D422C6C004010B50446CC48844272
:1004F00008D10121042000F093FB0021042000F02A
:100500008FFB46E0C748844208D10121082000F053
:1005100087FB0021082000F083FB3AE0C2488442B8
:1005200008D10121102000F07BFB0021102000F0F9
:1005300077FB2EE0BD48844208D10121202000F045
:100540006FFB0021202000F06BFB22E0B8488442C2
:1005500008D10121402000F063FB0021402000F081
:100560005FFB16E0B348844208D10121802000F0EF
:1005700057FB0021802000F053FB0AE0AE48844284
:1005800007D10121801500F04BFB0021A01500F0E0
:1005900047FB10BD10B50121084600F041FB0021CA
:1005A000012000F03DFB10BD2DE9F0410246002581
:1005B0000026002000230024002791F803C00CF03F
:1005C0000F0591F803C00CF0100CBCF1000F03D024
:1005D00091F802C04CEA050591F800C0BCF1000F8B
:1005E00031D0146800202BE04FF0010C0CFA00F31E
:1005F000B1F800C00CEA03069E4220D183004FF000
:100600000F0C0CFA03F7BC4305FA03FC4CEA040494
:1006100091F803C0BCF1280F06D14FF0010C0CFA81
:1006200000FCC2F814C00AE091F803C0BCF1480F06
:1006300005D14FF0010C0CFA00FCC2F810C0401CB0
:100640000828D1D31460B1F800C0BCF1FF0F34DD2D
:10065000546800202EE000F1080C4FF0010808FA61
:100660000CF3B1F800C00CEA03069E4221D18300CE
:100670004FF00F0C0CFA03F7BC4305FA03FC4CEAED
:10068000040491F803C0BCF1280F05D100F1080C57
:1006900008FA0CF8C2F8148091F803C0BCF1480FB6
:1006A00007D100F1080C4FF0010808FA0CF8C2F865
:1006B0001080401C0828CED35460BDE8F0814FF66E
:1006C000FF710180022181700421C17070470246D0
:1006D000002093680B400BB1012000E00020704720
:1006E0000146886880B2704702460020D3680B40FC
:1006F0000BB1012000E0002070470146C86880B2BD
:10070000704701617047416170470AB1016100E0C3
:1007100041617047C16070474FF480320A43826183
:100720008161826182698269704702460020434B81
:1007300018684FF68073184040EA021008433F4B98
:10074000186070473E49C8617047F0B50A460023FB
:1007500000240021002500F00046B6F1004F02D130
:10076000364EF16901E0354E7168C0F3034583B23E
:1007700000F44016B6F5401F08D121F070612F4EED
:10078000766826F070662D4F7E6012E000F48016C9
:10079000B6F5801F06D1032606FA05F4A14341F001
:1007A000706106E0460D360103FA06F6B14341F0EA
:1007B000706122B1460D360103FA06F6314300F0AE
:1007C0000046B6F1004F02D11C4EF16101E01B4E14
:1007D0007160F0BD30B500228B071C0F0F2303FAA8
:1007E00004F2164B08338C1053F824309343134C07
:1007F00008348D1044F8253023468C1053F82430EB
:100800008C07240F00FA04F423430C4C08348D1099
:1008100044F8253030BD0A49DC31086070470000DB
:1008200000080140000C014000100140001401408C
:1008300000180140001C0140002001400000014060
:100840000000204210B50121080700F0F6F9002150
:100850004FF0805000F0F1F910BD2A49086270474E
:1008600028490861704701460020274A106820F097
:10087000E0000843106070472249A03108607047CB
:1008800010B502460020204B186820F003001043EA
:1008900018601E4B1B6843F004031C4C23600129A5
:1008A00001D130BF00E020BF184B1B6823F00403C8
:1008B000164C236010BD1448006840F00400124933
:1008C00008600846006840F0020008600F480068B1
:1008D00040F004000D49086000BF00BF30BF704702
:1008E00001460020084A52680A400AB1012000E08F
:1008F000002070470449096841EA8001024A1160FA
:100900007047000000000E420070004010ED00E053
:10091000DF48006840F00100DD4908600846406893
:10092000DC490840DA49486008460068DA4908406E
:10093000D74908600846006820F48020086008460F
:10094000406820F4FE0048604FF41F008860704744
:10095000CF49096821F48031CD4A116011460968F8
:1009600021F480211160B0F5803F03D0B0F5802FD5
:100970000ED106E0C649096841F48031C44A1160CD
:1009800007E0C349096841F4A021C14A116000E0B1
:1009900000BF00BF704710B50146002200230020B1
:1009A0004A11012A02D1BA4C236806E0022A02D178
:1009B000B74C236A01E0B64C636A01F01F020124C0
:1009C00094401C400CB1012000E0002010BD38B55F
:1009D000002000900024002500BF3120FFF7DBFF3E
:1009E00005460098401C00900098B0F5A06F01D01B
:1009F000002DF2D03120FFF7CEFF08B1012400E036
:100A00000024204638BD01460020A14A106820F08D
:100A1000F80040EAC10010607047A04908607047C4
:100A2000024600209A4B586820F47C1042EA0103E9
:100A30001843974B586070479849086670470146BD
:100A40000020934A506820F003000843506070472C
:100A50008F48406800F00C007047014600208C4A27
:100A6000506820F0F00008435060704701460020B5
:100A7000874A506820F4E0600843506070470146A0
:100A80000020834A506820F4605040EAC100506062
:100A9000704729B17E4A527A02437D4B5A7204E074
:100AA0007B4A527A82437A4B5A7270477B49D831DB
:100AB0000860704701460020754A506820F44040A5
:100AC0000843506070470021714A20321170704A0B
:100AD00082F82010012802D004280AD104E0012164
:100AE0006B4A2032117005E00521694A20321170ED
:100AF00000E000BF00BF7047694908607047644963
:100B0000096A0143624A11627047654944390860C5
:100B1000704730B500210022002400235C4D6D6831
:100B200005F00C0121B1042905D0082923D105E0E5
:100B30005C4D056022E05B4D05601FE0544D6D6823
:100B400005F47012524D6D6805F48034022505EBF2
:100B500092421CB9544D554305600BE04C4D6D68F5
:100B600005F400351DB1504D5543056002E04D4D73
:100B70005543056002E04B4D056000BF00BF444D8A
:100B80006D6805F0F0010909484D6B5C0568DD40B2
:100B900045603F4D6D6805F4E061090A434D6B5CAB
:100BA0004568DD4085603A4D6D6805F46051C90ABD
:100BB0003E4D6B5C4568DD40C560354D6D6805F4A4
:100BC0004041890B3A4D6B5CC568B5FBF3F5056197
:100BD00030BD29B12E4A526902432D4B5A6104E0BF
:100BE0002B4A526982432A4B5A61704729B1284ADD
:100BF00092690243264B9A6104E0254A9269824336
:100C0000234B9A61704729B1214AD2690243204B94
:100C1000DA6104E01E4AD26982431D4BDA617047F3
:100C200029B11B4AD2680243194BDA6004E0184A22
:100C3000D2688243164BDA60704729B1144A1269B0
:100C40000243134B1A6104E0114A12698243104BAC
:100C50001A61704712494039086070470F49C864EB
:100C600070470B49C87170470948406A40F080706E
:100C700007494862704701460020054A92680A40C9
:100C80000AB1012000E000207047014988727047D6
:100C9000001002400000FFF8FFFFF6FE0000424295
:100CA0008004424200127A0000093D001400002036
:100CB0002400002029B1504A128802434E4B1A806A
:100CC00004E04D4A128882434B4B1A8070474A48D1
:100CD000001D008840F010004749091D088070473A
:100CE0004548001D00884FF6EF7108404249091D34
:100CF00008807047002140481C300188001F008890
:100D000041EA0040704700B50246FFF7E0FF100CD3
:100D1000394918310880091D0A80FFF7E1FF00BD3D
:100D200000B50246FFF7D3FFC2F303403249083152
:100D30000880091D0A80FFF7D3FF00BD00B50246F9
:100D4000FFF7C5FF100C2C4920310880091D0A80CF
:100D5000FFF7C6FF00BD00202749103109880907A9
:100D6000080B2549143109880843704700BF224801
:100D7000001D008800F020000028F8D070471E48B1
:100D8000001D00884FF6F77108401B49091D0880B7
:100D900000BF1948001D008800F008000028F8D0A6
:100DA000704701460020144A121D12880A400AB1F9
:100DB000012000E0002070470F49091D0988814388
:100DC0000D4A121D11807047014600200A4A121D6B
:100DD00012880A40D0B2084A12880A4012B108B1FB
:100DE000012000E0002070470349091D0988814364
:100DF000014A121D118070470028004010B50446BA
:100E0000FE48844208D10121C014FFF709FF0021E8
:100E1000E014FFF705FFC4E0B4F1804F08D10121D1
:100E20000846FFF70AFF00210120FFF706FFB8E0A0
:100E3000F348844208D101210220FFF7FEFE002181
:100E40000220FFF7FAFEACE0EE48844208D101210F
:100E50000420FFF7F2FE00210420FFF7EEFEA0E0E1
:100E6000E948844208D101210820FFF7E6FE00216D
:100E70000820FFF7E2FE94E0E448844208D1012113
:100E80001020FFF7DAFE00211020FFF7D6FE88E0E1
:100E9000DF48844208D101212020FFF7CEFE002147
:100EA0002020FFF7CAFE7CE0DA48844208D1012105
:100EB0004014FFF7B5FE00216014FFF7B1FE70E0AB
:100EC000D548844209D10121C804FFF7A9FE0021B9
:100ED0004FF40020FFF7A4FE63E0D048844209D11C
:100EE00001210805FFF79CFE00214FF48010FFF759
:100EF00097FE56E0CA48844209D101214805FFF710
:100F00008FFE00214FF40010FFF78AFE49E0C5482C
:100F1000844208D101214020FFF78FFE00214020AC
:100F2000FFF78BFE3DE0C048844208D101218020BC
:100F3000FFF783FE00218020FFF77FFE31E0BB48F2
:100F4000844208D101218015FFF777FE0021A0150A
:100F5000FFF773FE25E0B648844209D10121080459
:100F6000FFF75EFE00214FF48030FFF759FE18E0D6
:100F7000B048844209D101214804FFF751FE002105
:100F80004FF40030FFF74CFE0BE0AB48844208D131
:100F900001218804FFF744FE00214FF48020FFF771
:100FA0003FFE10BD00220288944B98420ED0994B10
:100FB00098420BD0B0F1804F08D0914B984205D0A9
:100FC000904B984202D0904B984204D14FF68F73C9
:100FD0001A404B881A438D4B984207D08C4B98424D
:100FE00004D04FF6FF431A40CB881A4302808B8807
:100FF00083850B880385814B98420BD0854B9842A3
:1010000008D08B4B984205D08A4B984202D08A4B2D
:10101000984201D10B7A038601238382704770B511
:10102000002400220023058C4FF6FE76354005840F
:10103000028C8388048B4FF68F752C40B51E2C4094
:101040000D882C43751E2A400D892A434D882A435A
:101050006A4DA8420BD06F4DA84208D0744DA842EB
:1010600005D0744DA84202D0734DA84213D14FF65B
:10107000F7752A404D892A434FF6FB752A408D8823
:101080002A434FF6FF652B404FF6FF552B408D89C5
:101090002B43CD892B4383800483CD8885860284AE
:1010A00070BD70B5002400220023058C4FF6EF764A
:1010B00035400584028C8388048B48F6FF752C40EC
:1010C0004FF6FF452C400D884FF6FF7606EA0525C2
:1010D0002C434FF6DF752A400D8906EA05152A4391
:1010E0004D8806EA05152A43444DA84202D0494DD1
:1010F000A8421DD14FF67F752A404D894FF6FF76E5
:1011000006EA05152A434FF6BF752A408D8806EA80
:1011100005152A434FF6FF352B404FF2FF752B4044
:101120008D8906EA85052B43CD8906EA85052B4383
:1011300083800483CD880587028470BD70B5002448
:1011400000220023058C4FF6FF6635400584028C93
:101150008388848B4FF68F752C404FF6FC752C409E
:101160000D882C434FF6FF552A400D894FF6FF7628
:1011700006EA05252A434D8806EA05252A431F4D20
:10118000A84202D0234DA8421DD14FF2FF752A403C
:101190004D894FF6FF7606EA05252A434FF6FF35BF
:1011A0002A408D8806EA05252A434EF6FF752B4016
:1011B0004DF6FF752B408D8906EA05152B43CD8929
:1011C00006EA05152B4383808483CD8885870284B6
:1011D00070BD70B5002200230024058C4EF6FF760A
:1011E00035400584038C8488828B48F6FF752A403D
:1011F0004FF6FF452A400D8820E00000002C0140FA
:101200000004004000080040000C004000100040B6
:101210000014004000340140004C014000500140E7
:101220000054014000180040001C00400020004015
:101230000040014000440140004801404FF6FF7665
:1012400006EA05252A434DF6FF752B400D8906EA6F
:1012500005352B434D8806EA05352B43FA4DA84248
:1012600002D0FA4DA84208D14BF6FF752C408D896B
:101270004FF6FF7606EA85152C4384808283CD885D
:10128000A0F84050038470BD828B4FF2FF331A40A8
:101290008283828B4FF6FF7303EA01231A43828312
:1012A0007047F0B50C461546002200210026078C39
:1012B0004EF6FF7C07EA0C070784828B018C4FF601
:1012C000FF7707EA043640F6FF473A404FF6FF77CC
:1012D00007EA05273A434FF6FF7707EA03373A4311
:1012E000D94FB8420ED0D94FB8420BD0B0F1804F91
:1012F00008D0D74FB84205D0D64FB84202D0D64F0B
:10130000B84206D14DF6FF77394046F4805739434D
:1013100005E047F6FF57394044F48057394382834C
:101320000184F0BD828B4FF6F3731A408283828B67
:101330000A4382837047F0B50C461546002200210F
:101340000026078C4FF6FF6C07EA0C070784828B98
:10135000018C4FF6FF7707EA04264FF60C773A40E8
:101360004FF6FF7707EA03172F433A43B64FB842C9
:101370000ED0B64FB8420BD0B0F1804F08D0B44F6A
:10138000B84205D0B34FB84202D0B34FB84206D1ED
:101390004FF6FF57394046F48077394305E04FF266
:1013A000FF57394044F48077394382830184F0BD8C
:1013B000028B4FF2FF331A400283028B4FF6FF730A
:1013C00003EA01231A4302837047F0B50C46154621
:1013D000002200210026078C4FF6EF7C07EA0C075D
:1013E0000784028B018C4FF6FF7707EA041640F65C
:1013F000FF473A404FF6FF7707EA03373A434FF685
:10140000FF7707EA05273A438F4FB8420ED08F4F38
:10141000B8420BD0B0F1804F08D08D4FB84205D004
:101420008C4FB84202D08C4FB84206D14FF6DF77CE
:10143000394046F01007394305E04FF65F773940F1
:1014400044F01007394302830184F0BD028B4FF64C
:10145000F3731A400283028B0A4302837047F0B58C
:101460000C46154600220021068C4FF6FE773E40C2
:101470000684028B018C4FF60C7632407E1C06EA05
:1014800003162E433243704EB0420ED06F4EB04220
:101490000BD0B0F1804F08D06D4EB04205D06D4EEC
:1014A000B04202D06C4EB04206D14FF6FD763140CC
:1014B00044F00106314305E04FF6F576314044F043
:1014C0000106314302830184F0BD70B505460C4628
:1014D0005D4885420ED05D4885420BD0B5F1804F06
:1014E00008D05B48854205D05A48854202D05A4808
:1014F000854200D100E000BF208850B92389A2882E
:1015000061882846FFF7ABFFE1882846FFF79EFF7A
:1015100025E0208804280AD12389A28861882846EA
:10152000FFF753FFE1882846FFF742FF17E02088C6
:1015300008280AD12389A28861882846FFF7FBFE84
:10154000E1882846FFF7EEFE09E02389A28861883A
:101550002846FFF7A6FEE1882846FFF795FE70BDF6
:101560002DE9F04105460C4600260127608808B9A0
:10157000022600E00026A088012801D1022700E011
:1015800001272088A0B92389A28861882846FFF70F
:1015900066FFE1882846FFF759FF23893A4631461E
:1015A0002846FFF712FFE1882846FFF701FF13E006
:1015B0002389A28861882846FFF707FFE18828462B
:1015C000FFF7F6FE23893A4631462846FFF747FFE4
:1015D000E1882846FFF73AFFBDE8F0810A884B888A
:1015E0001A438B881A43CB881A430B891A434B89B9
:1015F0001A438B891A43A0F8442070474FF6FF71B5
:10160000818000210180C1804180017270470021EA
:10161000018041808180C180018141818181C181BE
:101620007047002101804180012181800021C1801B
:10163000018170470021018041808180C18001814A
:101640004181818170470000002C0140003401403D
:101650000004004000080040000C004021B1028856
:1016600042F00102028004E002884FF6FE731A4045
:101670000280704731B1B0F8442042F40042A0F833
:10168000442005E0B0F84420C2F30E02A0F8442044
:1016900070471AB183890B43838102E083898B43AE
:1016A000838170478182704741EA0203A0F8483085
:1016B00070471AB183890B43838102E083898B438E
:1016C0008381704701894FF6F8721140018170479C
:1016D0000A46002101894FF68F7319401143018199
:1016E000704730B504460D4629462046FFF7F0FF07
:1016F000208940F00700208130BD2DE9F0410446EB
:101700000D4616461F46602D06D13B460122314646
:101710002046FFF75AFE05E03B46012231462046AF
:10172000FFF79DFE29462046FFF7D2FF208940F0B3
:1017300007002081BDE8F08130B50C460021018909
:10174000C9B24FF6FF7505EA032515432543294322
:10175000018130BD2DE9F04105460E4617469846F9
:10176000002443463A4631462846FFF7E5FF2C89D8
:101770004FF6F870044044F007044FF68F700440B1
:1017800044F070042C81BDE8F081F0B504460D46AC
:1017900016461F463B46324629462046FFF7CCFFF9
:1017A000208940F480402081F0BD0185828270470D
:1017B0000A46002101884FF68F73194011430180BA
:1017C0007047F0B50C4615461E4600210022002346
:1017D0000189028B038C4FF6F877394021434FF68D
:1017E000FC473A4040F201173A434FF6DD773B4061
:1017F0004FF6FF7707EA06172F433B430181028329
:101800000384F0BD0A460021018B4FF68F73194007
:101810001143018370470A460021018B48F6FF738C
:1018200019404FF6FF7303EA0223194301837047FF
:101830000A460021818B4FF68F7319401143818333
:1018400070470A460021818B48F6FF7319404FF616
:10185000FF7303EA022319438183704721B1028891
:1018600042F08002028004E002884FF67F731A4043
:101870000280704721B1828842F00402828004E035
:1018800082884FF6FB731A408280704721B18288AC
:1018900042F00802828004E082884FF6F7731A4013
:1018A0008280704721B1828842F00102828004E088
:1018B00082884FF6FE731A40828070470A460021E4
:1018C000018B4FF6F77319401143018370470A46A5
:1018D0000021018B4FF2FF7319404FF6FF7303EAAB
:1018E00002231943018370470A460021818B4FF67A
:1018F000F77319401143818370470A460021818B99
:101900004FF2FF7319404FF6FF7303EA02231943A6
:10191000818370470A460021018B4FF6FB73194003
:101920001143018370470A460021018B4FF6FF33B4
:1019300019404FF6FF7303EA0223194301837047EE
:101940000A460021818B4FF6FB73194011438183B6
:1019500070470A460021818B4FF6FF3319404FF63E
:10196000FF7303EA02231943818370470A4600216B
:10197000018B4FF67F7319401143018370470A466C
:101980000021018BC1F30E014FF6FF7303EA02231E
:101990001943018370470A460021818B4FF67F73FC
:1019A00019401143818370470A460021818BC1F39E
:1019B0000E014FF6FF7303EA022319438183704738
:1019C0000A460021018C4FF6FD7319401143018432
:1019D00070470A460021018C4FF6F77319401143F6
:1019E000018470470A460021018C4FF6DF731940CD
:1019F0004FF6FF7303EA02131943018470470A4646
:101A00000021018C4FF67F7319404FF6FF7303EAF4
:101A100002131943018470470A460021018C4FF6D6
:101A2000FF5319404FF6FF7303EA02231943018461
:101A300070470A460021018C4FF2FF7319404FF6A0
:101A4000FF7303EA02231943018470470A46002109
:101A5000018C4DF6FF7319404FF6FF7303EA023312
:101A600019430184704730B5002301248C40A3B290
:101A7000048C9C430484048C02FA01F5ADB22C431F
:101A8000048430BD30B5002304248C40A3B2048C00
:101A90009C430484048C02FA01F5ADB22C43048407
:101AA00030BD70B5034600200024184618300125CB
:101AB0008D40ACB21D8CA5431D8409B1082909D104
:101AC00000EB6100056825F07005056005681543A9
:101AD00005600EE00D1FC5F34E052844056825F48A
:101AE000E045056005684FF6FF7606EA02263543B5
:101AF000056070BD21B1028842F00202028004E05C
:101B000002884FF6FD731A400280704721B10288A7
:101B100042F00402028004E002884FF6FB731A4090
:101B20000280704721B1828842F08002828004E006
:101B300082884FF67F731A408280704702884FF682
:101B4000F7731A40028002880A4302807047828835
:101B50004FF68F731A40828082880A4382807047D2
:101B600002894FF6F8731A40028102890A43028102
:101B7000704702894FF67F731A40028102890A4337
:101B800002817047818470478185704781867047E4
:101B90000187704781877047A0F84010704702881E
:101BA0004FF6FF431A40028002880A4302807047C2
:101BB0000146888E70470146088F70470146888F1E
:101BC00070470146B1F8400070470146888C704765
:101BD0000146088D704702460020138A0B400BB166
:101BE000012000E000207047CA430282704730B5F0
:101BF0000246002000230024158A05EA0103958986
:101C000005EA010413B10CB1012000E0002030BD51
:101C1000CA4302827047000010B50446FB48844264
:101C200009D101218803FEF7FBFF00214FF480401A
:101C3000FEF7F6FF32E0F648844209D1012148045C
:101C4000FEF7FBFF00214FF40030FEF7F6FF25E022
:101C5000F048844209D101218804FEF7EEFF0021FB
:101C60004FF48020FEF7E9FF18E0EB48844209D1E9
:101C70000121C804FEF7E1FF00214FF40020FEF728
:101C8000DCFF0BE0E548844208D101210805FEF79E
:101C9000D4FF00214FF48010FEF7CFFF10BD2DE9D7
:101CA000F04786B005460E460024A24600BFA14676
:101CB0000027B08900B100BF2F462C8A4CF6FF7078
:101CC0000440F08804432C82AC894EF6F3100440A3
:101CD000B08831890843718908430443AC81AC8AD8
:101CE0004FF6FF400440B0890443AC8201A8FEF7E0
:101CF00010FFC648874202D1DDF810A001E0DDF8F0
:101D00000CA0A88900F4004040B10AEBCA0000EB27
:101D10000A1031684900B0FBF1F807E00AEBCA008D
:101D200000EB0A1031688900B0FBF1F86420B8FBC1
:101D3000F0F004012009642101FB1089A88900F456
:101D4000004040B1322000EBC900B0FBF1F000F0E0
:101D50000700044308E0322000EB09106421B0FBC7
:101D6000F1F000F00F0004432C8106B0BDE8F087CD
:101D70004FF41651016000218180C18001810C2146
:101D8000418100218181704710B502460020108AF0
:101D90004FF2FF0318400B884C8823438C88234361
:101DA000CC8823431843108210BD0021018041805C
:101DB0008180C180704721B1828942F400528281C2
:101DC00004E082894DF6FF731A4082817047F0B5B6
:101DD0000346002400260025002040F66A17B94279
:101DE00000D100BF1846C1F3421401F01F060127BD
:101DF00007FA06F5012C01D10C3004E0022C01D1C8
:101E0000103000E014301AB107682F43076002E079
:101E10000768AF430760F0BD1AB1838A0B43838222
:101E200002E0838A8B4383827047028A4FF6F07305
:101E30001A400282028A0A430282704782894FF264
:101E4000FF731A40828182890A438281704721B1DF
:101E5000828942F00202828104E082894FF6FD739A
:101E60001A4082817047028A4FF6DF731A4002825D
:101E7000028A0A430282704721B1028A42F48042F8
:101E8000028204E0028A4BF6FF731A400282704716
:101E9000C1F308028280704701468888C0F30800B9
:101EA0007047818941F0010181817047028BD2B274
:101EB0000283028B42EA012202837047028B02F402
:101EC0007F420283028B0A430283704721B1828AD8
:101ED00042F02002828204E0828A4FF6DF731A40C9
:101EE0008282704721B1828A42F01002828204E02D
:101EF000828A4FF6EF731A408282704721B1828A3C
:101F000042F00802828204E0828A4FF6F7731A4098
:101F10008282704721B1828942F40042828103E0CB
:101F20008289C2F30E028281704721B1828A42F413
:101F30000062828204E0828A4FF2FF731A4082823A
:101F40007047828A4FF6FB731A408282828A0A4364
:101F50008282704721B1828A42F00202828204E0CA
:101F6000828A4FF6FD731A40828270470246002033
:101F7000B1F5007F00D100BF13880B400BB10120E9
:101F800000E00020704701F40072B2F5007F00D13C
:101F900000BFCA430280704770B502460024002388
:101FA0000025002040F66A16B14200D100BFC1F3FF
:101FB000421501F01F03012606FA03F3012D02D199
:101FC0009689334006E0022D02D1168A334001E0A3
:101FD000968A33400C12012606FA04F4168834401F
:101FE00013B10CB1012000E0002070BD10B500223B
:101FF000002340F66A14A14200D100BF0A12012456
:102000009440A3B2DC43048010BD000000380140BE
:102010000044004000480040004C00400050004098
:10202000704710B50120FEF7CFFE20B10120FEF76A
:10203000DBFEFEF79BFE10BD00BFFEE700BFFEE724
:1020400000BFFEE700BFFEE770477047704710B55E
:102050000120FEF7B9FE10B10120FEF7C5FE10BD4C
:1020600010B5002406E0A448015DA44802F0CCFCB1
:10207000601CC4B2062CF6DB002406E0A048015D1B
:102080009E4802F0C1FC601CC4B2062CF6DB10BDF9
:1020900010B5FFF7E5FF142002F01DFC9948447AC3
:1020A000204610BD10B5002406E09348015D93481A
:1020B00002F0AAFC601CC4B2062CF6DB002406E089
:1020C0009148015D8D4802F09FFC601CC4B2072C52
:1020D000F6DB10BD10B5002406E08748015D874897
:1020E00002F092FC601CC4B2062CF6DB002406E071
:1020F0008648015D814802F087FC601CC4B2072C51
:10210000F6DB10BD10B5002406E07B48015D7B487E
:1021100002F07AFC601CC4B2062CF6DB002406E058
:102120007B48015D754802F06FFC601CC4B2062C50
:10213000F6DB10BD10B5002406E06F48015D6F4866
:1021400002F062FC601CC4B2062CF6DB002406E040
:102150007048015D694802F057FC601CC4B2062C4F
:10216000F6DB10BD10B5002406E06348015D63484E
:1021700002F04AFC601CC4B2062CF6DB002406E028
:102180006548015D5D4802F03FFC601CC4B2062C4E
:10219000F6DB10BD38B5054600200090280A5F49DF
:1021A00008714D71002406E05C48005D0099084408
:1021B0000090601CC4B2082CF6DB0098000A574956
:1021C000087200984872002406E04B48015D4B48B5
:1021D00002F01AFC601CC4B2062CF6DB002406E0F8
:1021E0004E48015D454802F00FFC601CC4B20A2C49
:1021F000F6DB38BD10B5002405E03F48015D3F48DF
:1022000002F002FC641C062CF7D3002405E04448CD
:10221000015D3A4802F0F8FB641C062CF7D310BDB0
:1022200010B5002406E03448015D344802F0ECFBB0
:10223000601CC4B2062CF6DB002406E03948015DC0
:102240002E4802F0E1FB601CC4B20B2CF6DB10BD83
:1022500010B5002406E02848015D284802F0D4FBB0
:10226000601CC4B2062CF6DB002406E02E48015D9B
:10227000224802F0C9FB601CC4B20B2CF6DB10BD77
:102280002DE9F04106460F46002528484671877122
:10229000002404E02548005D0544601CC4B2072CFE
:1022A000F8DB280A2149C8710D72002406E01248A3
:1022B000015D124802F0A8FB601CC4B2062CF6DBDC
:1022C000002406E01948015D0C4802F09DFB601CEB
:1022D000C4B2092CF6DBBDE8F08170B505460024D8
:1022E00006E00648FFF7D8FD11490855601CC4B246
:1022F000AC42F6DB70BD0000280000200038014031
:102300002E000020D802002050000020570000209E
:102310007D0000205E00002064000020730000208B
:10232000340000203A000020450000206A00002010
:10233000EA02002010B5002406E0F948015DF948E2
:10234000FFF7A6FD601CC4B2062CF6DB002406E0F5
:10235000F548015DF348FFF79BFD601CC4B20A2CF1
:10236000F6DB10BD70B504460D46002600BFFFF732
:1023700077FEEE488079072803D0EC48407A0028A1
:10238000F5D1FFF78FFE00BF4FF4967002F0A3FA6D
:10239000FFF766FEE5488079072803D0E348407AD6
:1023A0000028F1D100BF642002F095FAFFF792FEF9
:1023B000DE488079072803D0DC48407A0028F2D133
:1023C00000BF642002F087FAFFF7B4FED748807997
:1023D000072803D0D548407A0028F2D1642002F0C3
:1023E0007AFA29462046FFF74BFF4FF4966002F039
:1023F00072FACE488079072804D1CC48407A08B9CF
:10240000002070BD0120FCE710B5C94B984241DAAD
:10241000C84B90FBF3F3CB61C64B90FBF3F403FB8B
:102420001403C54C93FBF4F38B61234690FBF3F448
:1024300003FB1403C14C93FBF4F34B61234690FB65
:10244000F3F403FB140342F2107493FBF4F30B61F7
:10245000234690FBF3F403FB14034FF47A7493FBCD
:10246000F4F3CB60234690FBF3F403FB14036424E2
:1024700093FBF4F38B60642390FBF3F403FB1403EE
:102480000A2493FBF4F34B600A2390FBF3F403FB61
:1024900014030B6010BD2DE9F04F8FB00024002510
:1024A00000BF06E09E48015D9E4802F0ADFA601C48
:1024B00084B2062CF6DB002406E0A148015D9948B1
:1024C00002F0A2FA601C84B2062CF6DB40F24C400B
:1024D00002F001FA9548807907287DD19348407A27
:1024E0000028FAD19148C77A96A207CA04AB07C35D
:1024F0004FF6FF7000EA07111022954800F0A9FC82
:102500000A2002F0E8F99248007830386421484304
:102510008F494978303901EB810100EB41018C484A
:1025200080783038084485B2AF427DD189A207CA8D
:1025300001AB07C38AA18E4802F075FA002405E0BA
:10254000FF218B4802F060FA601C84B2032CF7DB99
:10255000E8B28DF805007E48C07B55287ED14FF04B
:10256000010900264FF0000AFEF7C4FB83467148BC
:10257000BBFBF0F100FB11BB7548C07A302837DB9C
:102580007348C07A392833DC7148007B30282FDB50
:102590006F48007B39282BDC6D48407B302827DBD7
:1025A0006B48407B392823DC6948807B30281FDB5F
:1025B0006748807B39281BDC6548007B30386449DC
:1025C000C97A303901EB810100EB4100C0EB00100A
:1025D00081005F48407B00E0AFE1303800EB8000D5
:1025E00001EB40015A48807B303801EB000A01E0E2
:1025F0004FF0000A0A240AE05548005D303809FB14
:10260000008809EB89004FEA4009601E84B2032C60
:10261000F2DAABEB08063C2096FBF0F000EB0A0682
:102620004B480078534900E05EE108704848407824
:102630004870474880788870032404E058204D494A
:102640000855601C84B20B2CF8DB3C2096FBF0F0A4
:102650000A2190FBF1F03030464900E09AE0C87260
:102660003C2096FBF0F00A2190FBF1F201FB1200F6
:102670003030404908733C2096FBF0F100FB1160BC
:102680000A2190FBF1F030303A4948733C2096FB28
:10269000F0F100FB11600A2190FBF1F201FB120046
:1026A0003030344988734420C8734FF6FF7000EA15
:1026B000051110222F4800F004FCEF202E4908706D
:1026C0004420487022480078887021484078C870BB
:1026D0001F48807808712748C07A48712548007BD8
:1026E00088712448407BC8712248807B0872FF2093
:1026F0004872002406E02048015D204802F084F979
:10270000601C84B20B2CF6DB01208DF80700002042
:102710008DF8090001208DF80B00002437E000003F
:1027200028000020003801409A0000200403002007
:1027300000E1F5058096980040420F00A086010058
:10274000F400002001010101010101FFFFFFFF0072
:102750002C030020EE01010102010301040100002D
:1027600070616765206368617474657200000000C1
:10277000004C00400F0100202701002000440040D1
:1027800001A8015D914802F03FF9601C84B20A2C57
:10279000F6DBA5E08E48C07B4428FAD1FEF7AAFA02
:1027A0008C49B0FBF1F201FB120600208A49086057
:1027B000082207A93046FFF727FE85480078874999
:1027C0000870834840784870814880788870032476
:1027D00009E0C4F10A0007A911F8200030307F4950
:1027E0000855601C84B20B2CF3DB7948C07A302882
:1027F00029DB7748C07A392825DC7548007B3028EA
:1028000021DB7348007B39281DDC7148407B302870
:1028100019DB6F48407B392815DC6D48807B3028F8
:1028200011DB6B48807B39280DDC6948C07A6B4925
:10283000C8726748007B08736548407B48736448EA
:10284000807B887305E030206449C8720873487340
:10285000887355206149C8734FF6FF7000EA05116F
:1028600010225E4800F02DFBEF205D4908705520D6
:10287000487057480078887055484078C870544868
:10288000807808715548C07A48715448007B887137
:102890005248407BC8715148807B0872FF204872C3
:1028A000002406E04E48015D4E4802F0ADF8601C81
:1028B00084B20B2CF6DB00208DF8070001208DF888
:1028C000090000208DF80B00002406E001A8015D3E
:1028D0003E4802F099F8601C84B20A2CF6DB00BF77
:1028E00000204149087027E0EF203D49087043204F
:1028F0004870022404E0582039490855601C84B20D
:102900000A2CF8DB002406E03548015D354802F06A
:102910007BF8601C84B20B2CF6DBAFF2BC113348A1
:1029200002F081F8002405E0FF21304802F06CF845
:10293000601C84B2032CF7DB26E0EF2028490870E6
:1029400041204870022404E0582025490855601CA5
:1029500084B20A2CF8DB002406E02148015D2148FE
:1029600002F052F8601C84B20B2CF6DB20A11F4849
:1029700002F059F8002405E0FF211C4802F044F859
:10298000601C84B2032CF7DB0FB0BDE8F08F10B5EC
:10299000002400BF06E01A48015D1A4802F034F82E
:1029A000601C84B2062CF6DB002406E01648015DAC
:1029B000144802F029F8601C84B2062CF6DB10BD26
:1029C00010B5124801F0B2F910BD000000480040F7
:1029D0002C03002080969800948121420F01002052
:1029E00027010020004400408D000020004C0040E2
:1029F0007061676520636861747465726E6F000052
:102A0000280000200038014094000020100300201E
:102A100010B540F225517C48FFF7BEFAC8B17A489C
:102A2000FFF73AFAC4B2EF2C02D1002077490870C0
:102A3000764800780C2809DA7548744909784454B6
:102A400072480078401C7149087002E000206F490C
:102A5000087010BD70B5054600240BE000BF402192
:102A60006948FFF783FA0028F9D0295D6648FFF727
:102A70000FFA641C082CF1DB70BD70B5044600250C
:102A800000BF00F0F2F80028FBD04FF4FA7001F01C
:102A900022FF00F0EAF8012805D12546E9B200201E
:102AA000FFF760FC70BD00BFFCE710B500F0DDF87B
:102AB00001280AD14FF4FA7001F00DFFFFF7EBFC8B
:102AC00000BF00F0D2F80128FBD010BD4FF4A06089
:102AD000FDF73AFC02F05BF801F0E3FF4FF416500B
:102AE00002F0D8F900F04FF901F0B8FE4FF416509B
:102AF00001F03AFF00F0A8F800F0C6F800F0D8FDA9
:102B0000444800F0D7FE4FF47A7001F0E4FE00F084
:102B100095F920B940A002F0F9FB00BFFEE700BF25
:102B2000002406E04248015D374801F06DFF601C5B
:102B3000C4B2062CF6DB002406E03E48015D3248B4
:102B400001F062FF601CC4B20A2CF6DB3048407A08
:102B500018B12F488078FF28E2D14FF47A7001F045
:102B6000BAFE4FE001203449086034480078EF286D
:102B700017D13248807AFF2813D13048407830305E
:102B80002E494870002406E02C48015D2C4801F0D5
:102B90003BFF601CC4B20B2CF6DB002027490870F9
:102BA00000BF28480078EF282AD1052001F093FEC5
:102BB00024484078DA2818D006DCAB2818D0BB2887
:102BC00010D0CC2817D104E0DD2805D0EE2812D192
:102BD00005E000F0D7FA0FE000F06DFB0CE000F02C
:102BE000F3FB09E000F036FC06E000F0D7FB03E061
:102BF00000F0BBFC00E000BF00BF002011490870DE
:102C0000FFF753FFAEE70000003801402401002029
:102C10000403002010030020C3BBD3D0BCECB2E2FD
:102C2000B5BDB4AED0D0454550524F4D210D0A0030
:102C3000280000209A000020948121428A0400206C
:102C4000004400409504002008B501211420FDF740
:102C5000CDFF48208DF803004FF48050ADF8000000
:102C600069460748FDF7A0FC08BD10B54FF4805138
:102C70000448FDF72CFD012800D110BD0020FCE721
:102C8000000C01400010014008B501214820FDF76B
:102C9000ADFF2020ADF8000010208DF803000320C8
:102CA0008DF8020069460948FDF77EFC202107489F
:102CB000FDF727FD2020ADF8000069460448FDF728
:102CC00073FC20210248FDF71CFD08BD000C0140EB
:102CD0000018014008B501210420FDF787FF0121FC
:102CE0000846FDF783FFC020ADF8000018208DF8DE
:102CF000030003208DF8020069462648FDF754FCC6
:102D000008BD00B587B001210220FDF77CFFC72078
:102D1000ADF8140041F61F40ADF810000020ADF8EA
:102D20001600ADF8120004A91B48FEF73BF970200D
:102D3000ADF800000020ADF808000120ADF8020059
:102D400069461548FEF76BF96020ADF800000020D9
:102D5000ADF808000120ADF8020069460E48FEF704
:102D6000A0F908210C48FEF7A9FD08210A48FEF742
:102D7000AEFD01210848FEF771FD01210648FEF76E
:102D80006DFC07B000BD10B5FFF7A4FFFFF7B9FF5A
:102D900010BD00000008014000040040244890F9E4
:102DA00000001E2806DD22480078801E40B220491F
:102DB00008700AE01E4890F90000002805DA1C4857
:102DC0000078801C40B21A4908707047194890F981
:102DD00000001E2806DD17480078801E40B2154905
:102DE00008700AE0134890F90000002805DA11483D
:102DF0000078801C40B20F490870704710B50F2151
:102E00000D48FEF7C5FE0F210B48FEF7BFFE10BDB3
:102E100010B5084890F9000081B20748FEF7B8FEE7
:102E2000034890F9000081B20348FEF7AFFE10BDE1
:102E300025010020260100200004004010B5A0203C
:102E400001F0F9FC08B9012010BD01F045FC00209B
:102E5000FAE72DE9F04106460F46154601F027FC3A
:102E6000A02001F047FC01F08CFC00B125E0F8B295
:102E700001F040FC01F085FC00B11EE001F017FC00
:102E8000A12001F037FC01F07CFC00B115E000242A
:102E90000CE001F057FC3055681EA04202D001F052
:102EA0008CFC01E001F09FFC601C84B2AC42F0DBC2
:102EB00001F012FC0120BDE8F08101F00DFC0020C2
:102EC000F9E72DE9F0470746884691464646002433
:102ED0002CE014B106F00700E8B901F0FDFB002575
:102EE0000AE001F0E4FBA02001F004FC01F049FC41
:102EF00000B904E0681C85B2B5F57A7FF1DB00BF4C
:102F0000B5F57A7F00D118E0F0B201F0F3FB01F0E3
:102F100038FC00B111E0385D01F0ECFB01F031FC50
:102F200000B10AE0701C86B2601C84B24C45D0DB54
:102F300001F0D2FB0120BDE8F08701F0CDFB0020BD
:102F4000F9E710B5C0B0002404E0FF200DF804003C
:102F5000601C84B2FF2CF8DD4FF4807200216846BB
:102F6000FFF7AFFF20B936A002F0D0F940B010BD96
:102F700038A002F0CBF900BFF8E701B502E00098F5
:102F8000401E009000980028F9D108BD10B5ADF59D
:102F9000007DFFF753FF20B933A002F0B7F900BF5F
:102FA000FEE7002403E040A90C55601C84B2FF2C0E
:102FB000F9DD4FF48072002140A8FFF782FF28B9A5
:102FC0002FA002F0A3F90DF5007D10BD31A002F095
:102FD0009DF93548FFF7D1FF4FF480720021684614
:102FE000FFF737FF18B931A002F090F9EBE734A0F2
:102FF00002F08CF900241CE01DF8040040A9095DD2
:10300000884208D01DF8041034A002F07FF935A0E2
:1030100002F07CF9D7E71DF804103BA002F076F926
:1030200004F00F000F2802D109A002F06FF9601C14
:1030300084B2FF2CE0DD36A002F068F900BFFEE7A5
:10304000B2C1B3FD656570726F6DB3F6B4EDA3A147
:103050000D0A0000B2C1B3FD656570726F6DB3C932
:10306000B9A6A3A10D0A0000C3BBD3D0BCECB2E249
:10307000B5BDB4AED0D0454550524F4D210D0A00DC
:10308000D0B4656570726F6DB3F6B4EDA3A10D0A8F
:1030900000000000D0B4656570726F6DB3C9B9A649
:1030A000A3A10D0A00000000FFFF0F00B6C1656577
:1030B00070726F6DB3F6B4EDA3A10D0A00000000AD
:1030C000B6C1656570726F6DB3C9B9A6A3ACCAFD10
:1030D000BEDDC8E7CFC2A3BA0D0A000030782530A4
:1030E00032582000B4EDCEF33A454550524F4DB61C
:1030F000C1B3F6D3EBD0B4C8EBB5C4CAFDBEDDB2E4
:10310000BBD2BBD6C20000002025303258000000E0
:10311000656570726F6DB6C1D0B4B2E2CAD4B3C97E
:10312000B9A60D0A0000000070B50546002400BFD6
:1031300006E0FB48015DFB4801F066FC601C84B2C0
:10314000062CF6DB002406E0F748015DF54801F0A7
:103150005BFC601C84B2062CF6DB40F24C4001F0B4
:10316000BAFBF248807907280AD1F048407A38B98A
:10317000EE48C17AA94201D1002070BD0120FCE7D0
:103180000120FAE770B5002400BFE9488078E949DA
:103190000870E748C0784870E54800798870E448CE
:1031A0008078303864214843E149C978303901EBEF
:1031B000810100EB4101DE4800793038084485B2D6
:1031C000E8B2FFF75AFC2846FFF7AEFF00285BD1B4
:1031D000032404E05820D7490855601CC4B20F2CC2
:1031E000F8DB4420D349C8731021D24801F0D6FE41
:1031F0004FF6FF7000EA05111022CE48FFF761FE7E
:10320000012001F068FB4FF6FF7000EA0511102263
:10321000C948FFF71EFE012001F05DFBC64800789B
:10322000C449097888421DD1C3484079C1494979C8
:10323000884217D1C048407BBE49497B884211D1A2
:103240005320BE494870002406E0BC48015DBC48DC
:1032500001F0DAFB601CC4B20B2CF6DB0020B44991
:10326000087022E04520B5494870002406E0B348C4
:10327000015DB34801F0C8FB601CC4B20B2CF6DB47
:103280000020AB49087010E04520AC49487000248C
:1032900006E0AA48015DAA4801F0B6FB601CC4B272
:1032A0000B2CF6DB0020A249087000BFFFF7DDFC05
:1032B0000128FBD070BD70B500BF00BF9C4880786E
:1032C0009C4908709A48C07848709948007988707D
:1032D000974880783038642148439549C978303917
:1032E00001EB810100EB410191480079303808443D
:1032F00085B22846FEF74EFF002404E058208D4991
:103300000855601CC4B2102CF8DB4FF6FF7000EAC1
:10331000051110228748FFF7D4FD012001F0DBFAE8
:103320004FF6FF7000EA051110228348FFF791FD68
:10333000012001F0D0FA804800787E49097888425F
:103340001DD17D4840797B494979884217D17A4817
:10335000407B7849497B884211D15A20774948708F
:10336000002406E07548015D754801F04DFB601CC6
:10337000C4B20B2CF6DB00206D4908700DE047202D
:103380006E494870002406E06C48015D6C4801F00D
:103390003BFB601CC4B20B2CF6DB70BD10B50024E7
:1033A000FFF7F5FA00BF03E066490C55601C84B2D4
:1033B000FF2CF9DD4FF4807200216248FFF781FD98
:1033C00000205B49087010BD10B55948807931283C
:1033D0000ED15748C07931280AD15548007A312892
:1033E00006D15348407A312802D1FFF707FD2DE07E
:1033F0004F488079312805D153480078401C40B2AD
:10340000514908704A48C079312805D14E480078A2
:10341000401E40B24C4908704548007A312805D119
:103420004A480078401C40B2484908704048407AF9
:10343000312805D145480078401E40B24349087004
:10344000FFF7ACFCFFF7C2FCFFF7E2FC00203849B5
:10345000087010BD3EB5002400253548807830281E
:1034600025DB33488078392821DC3148C078302882
:103470001DDB2F48C078392819DC2D480079302809
:1034800015DB2B480079392811DC29488078303841
:10349000642148432649C978303901EB810100EBAA
:1034A0004101234800793038084485B20CE02048B7
:1034B0008078AA2808D11E48C078AA2804D11C48C0
:1034C0000079AA2800D1AA25EE208DF80000E8B2E4
:1034D0008DF8010001208DF8020015488079303800
:1034E000C0B28DF8030002208DF804001048C079A6
:1034F0003038C0B28DF8050003208DF806000C4866
:10350000007A3038C0B28DF8070004208DF808002A
:103510000748407A3038C0B28DF8090000241EE018
:103520002800002000380140F4000020040300209F
:10353000950400200F0100202C030020270100200B
:1035400000440040720300202501002026010020D5
:103550001DF80410504801F057FA601C84B20A2C80
:10356000F6DB00204D4908703EBD70B500244B4885
:1035700080783038642148434849C978303901EBB4
:10358000810100EB41014548007930380D184FF6B4
:10359000FF7000EA051110224148FFF75AFC012094
:1035A00001F099F93E4800783038642148433C499D
:1035B0004978303901EB810100EB410138488078CE
:1035C00030380E18B54257D13548C07A302843DB21
:1035D0003348C07A39283FDC3148007B30283BDB58
:1035E0002F48007B392837DC2D48407B302833DBDF
:1035F0002B48407B39282FDC2948807B30282BDB67
:103600002748807B392827DCEF2026490870562080
:10361000487023480078887021484078C870204856
:10362000807808712048C07A48711F48007B8871F3
:103630001D48407BC8711C48807B08721848C07BBD
:10364000487200BF05E01748015D184801F0DCF939
:10365000641C0B2CF7DB1EE0EF201249087057208A
:103660004870002405E00F48015D104801F0CCF9D6
:10367000641C0B2CF7DB0EE0EF200A490870592080
:103680004870002405E00748015D084801F0BCF9D6
:10369000641C0B2CF7DB70BD004800409504002033
:1036A0002C030020270100200F01002000440040CF
:1036B00008B54FF4C060FCF747FE03208DF800000A
:1036C00001208DF8010000208DF8020001208DF806
:1036D00003006846FCF73DFE08BD7CB505460024A6
:1036E0000020009001901BE000BF2021C648FEF79B
:1036F0003DFC0028F9D0C448FEF7CEFB2146641CEF
:103700004DF82100601E5DF82000302804D3601EB3
:103710005DF82000392803D9BCA001F0F7FD641E34
:10372000022CE1D3019830380099303901EB810146
:1037300000EB4104AC4205D92946C1A001F0E6FDE9
:10374000FF207CBDE0B2FCE72DE9F04704464FF0D6
:10375000FF0AFF25FF26FF27A846A946C4A001F0BF
:10376000D5FDD2A001F0D2FD03E06320FFF7B5FF45
:103770008246BAF1FF0FF8D05146D6A001F0C6FD3F
:103780000AF5FA606061FF25DAA001F0BFFD03E0F1
:103790000C20FFF7A2FF0546FF2DF9D02946DFA038
:1037A00001F0B4FD2561FF26E2A001F0AFFD03E0CA
:1037B0001F20FFF792FF0646FF2EF9D03146E6A004
:1037C00001F0A4FDE660FF27E9A001F09FFD03E002
:1037D0001720FFF782FF0746FF2FF9D03946EDA0EB
:1037E00001F094FDA7604FF0FF08F0A001F08EFDFE
:1037F00003E03B20FFF771FF8046B8F1FF0FF8D0E0
:103800004146F4A001F082FDC4F804804FF0FF09A6
:10381000F6A001F07BFD03E03B20FFF75EFF814651
:10382000B9F1FF0FF8D04946FAA001F06FFDC4F8D6
:103830000090BDE8F08770B50446FDF797FA204682
:10384000FFF782FF204600F03BFE204600F081FE9D
:103850000546FDF758FAFDF789FA70BD10B501214C
:103860004FF0C050FDF7CFF90120FCF7F6FFFCF751
:10387000D9FD0120FDF727F900BF4120FDF78BF8A6
:103880000028FAD04FF48070FDF739F90120FDF7D8
:103890003CF9FDF774FAFDF769FA01210846FDF7D6
:1038A00009FAFDF763FA47F6FF70FDF739FAFDF7FD
:1038B0005DFA10BD10B504460420FCF7E8FD4AF29D
:1038C000A551884210D0D9A001F020FDFFF7C6FF16
:1038D000DEA001F01BFD2046FFF7ADFF4AF2A55127
:1038E0000420FCF7C8FD19E07B20FDF754F818B15F
:1038F000DCA001F00BFD06E07A20FDF74CF810B1DA
:10390000E1A001F003FDE9A001F000FDFDF737FAA9
:1039100001210846FDF7CEF9FDF728FAFDF7A4F9D5
:1039200010BD2DE9F0418AB005460C464FF0000865
:103930002946E6A001F0EAFC05F5E14621463046BD
:1039400000F045FEA06818B9606808B9206818B191
:10395000E248006800282CD0227B217CA38A98B200
:1039600006AB00F0F8FA9DF81B0000909DF81A30A5
:103970009DF819209DF81810D9A001F0C7FC227BF2
:10398000217CA38A98B206AB00F00AFC06A9DDA050
:1039900001F0BCFC227B217CA38A98B206AB00F02C
:1039A000E2FC18B106A9D7A001F0B0FC0020CB4979
:1039B00008606069C01E0C2190FBF1F201FB12004F
:1039C000D54951F82070DFF854C3A3695CF823305F
:1039D00094E80700CDE90232CDE90410D4E90310E0
:1039E000CDE900013B462946CD48626901F08EFCD5
:1039F000CC48006801F04AFB6421B0FBF1F0CA49F1
:103A000008600AB0BDE8F081003801400A0D506C32
:103A10006561736520656E7465722076616C69649A
:103A2000206E756D626572206265747765656E20C3
:103A30003020616E642039202D2D3E3A2020000078
:103A40000A0D506C6561736520656E746572207631
:103A5000616C6964206E756D626572206265747751
:103A600065656E203020616E6420256400000000D2
:103A70000D0A3D3D3D3D3D3D3D3D3D3D3D3D3D3DD9
:103A80003D3D3D3D3D3D3D3D3D3D3D54696D6520E8
:103A900053657474696E67733D3D3D3D3D3D3D3DED
:103AA0003D3D3D3D3D3D3D3D3D3D00000D0A20205D
:103AB000C7EBCAE4C8EBC4EAB7DD28506C65617394
:103AC0006520536574205965617273293A2020324C
:103AD000300000000A0D2020C4EAB7DDB1BBC9E800
:103AE000D6C3CEAA3A2020323025302E32640A0DB9
:103AF000000000000D0A2020C7EBCAE4C8EBD4C2C6
:103B0000B7DD28506C6561736520536574204D6F77
:103B10006E746873293A2020000000000A0D2020EE
:103B2000D4C2B7DDB1BBC9E8D6C3CEAA3A2020259E
:103B3000640A0D000D0A2020C7EBCAE4C8EBC8D503
:103B4000C6DA28506C656173652053657420446142
:103B5000746573293A2020000A0D2020C8D5C6DAE2
:103B6000B1BBC9E8D6C3CEAA3A202025640A0D000D
:103B70000D0A2020C7EBCAE4C8EBCAB1D6D328503F
:103B80006C656173652053657420486F7572732985
:103B90003A2020000A0D2020CAB1D6D3B1BBC9E813
:103BA000D6C3CEAA3A202025640A0D000D0A202093
:103BB000C7EBCAE4C8EBB7D6D6D328506C6561739F
:103BC0006520536574204D696E75746573293A20BC
:103BD000200000000A0D2020B7D6D6D3B1BBC9E81B
:103BE000D6C3CEAA3A202025640A0D000D0A202053
:103BF000C7EBCAE4C8EBC3EBD6D328506C6561733E
:103C00006520536574205365636F6E6473293A2091
:103C1000200000000A0D2020C3EBD6D3B1BBC9E8B9
:103C2000D6C3CEAA3A202025640A0D000D0A0D0A3B
:103C300020525443206E6F742079657420636F6E38
:103C4000666967757265642E2E2E2E000D0A0D0AA8
:103C50002052544320636F6E666967757265642EE7
:103C60002E2E2E000D0A0D0A20506F776572204F00
:103C70006E205265736574206F636375727265643C
:103C80002E2E2E2E000000000D0A0D0A20457874FD
:103C900065726E616C205265736574206F63637525
:103CA000727265642E2E2E2E000000000D0A204E2A
:103CB0006F206E65656420746F20636F6E66696740
:103CC000757265205254432E2E2E2E0054696D6558
:103CD000566172203D2025640D0A00008C010020F1
:103CE0000D0A20BDF1CCECD0C2C0FAA3BA25302E0B
:103CF000326425302E32642C25302E32642C25304F
:103D00002E3264000D0A20BDF1CCECC5A9C0FAA387
:103D1000BA25730D0A00000054010020380100206C
:103D2000245B0008880100208401002070B504464F
:103D3000FCF7E0FF05462146FFF7F3FD70BDF0B547
:103D40008BB005460C4605F5E1462146304600F0AD
:103D50003EFCA06818B9606808B9206818B13248FC
:103D6000006800282FD0227B217CA38A98B207AB61
:103D700000F0F1F89DF81F0000909DF81E309DF8AE
:103D80001D209DF81C10AFF2A80001F0BFFA227BA5
:103D9000217CA38A98B207AB00F002FA07A9AFF220
:103DA0009C0001F0B3FA227B217CA38A98B207AB76
:103DB00000F0D9FA20B107A9AFF2B80001F0A6FAD5
:103DC0000020194908606069C01E0C2190FBF1F2C7
:103DD00001FB1200154951F82070DFF854C0A369A7
:103DE0005CF8233094E80700CDE90232CDE90410F5
:103DF000D4E90310CDE900013B4629460D4862692C
:103E000001F084FA0BB0F0BD70B504460A480068B2
:103E1000012808D1FCF76EFF05462146FFF78FFF0A
:103E200000200549086070BD900100205401002069
:103E300038010020245B00083401002002460E2ACD
:103E400070D2DFE802F086071019222B353F495364
:103E50005D67727CF748405C00F0080008B90020FC
:103E600070470120FCE7F348405C00F0040008B90B
:103E70000020F5E70120F3E7EE48405C00F0020087
:103E800008B90020ECE70120EAE7EA48405C00F0CE
:103E9000010008B90020E3E70120E1E7E54B481CF9
:103EA000185C00F0800008B90020D9E70120D7E7AE
:103EB000E04B481C185C00F0400008B90020CFE738
:103EC0000120CDE7DB4B481C185C00F0200008B94E
:103ED0000020C5E70120C3E7D64B481C185C00F062
:103EE000100008B90020BBE70120B9E7D14B481CFE
:103EF000185C00F0080008B90020B1E70120AFE726
:103F0000CC4B481C185C00F0040008B90020A7E75F
:103F10000120A5E7C74B481C185C00F0020010B94F
:103F200000209DE715E001209AE7C24B481C185C71
:103F300000F0010008B9002092E7012090E7BD4B96
:103F4000881C185C00F0800008B9002088E7012078
:103F500086E7002084E72DE9FF4F83B00C461F461B
:103F60006421039890FBF1F0C0B20190039890FB9C
:103F7000F1F201FB1200C5B20198132806D0019896
:103F8000142803D0002007B0BDE8F08F0198142852
:103F900006D105F1630000EB40001FFA80F904E050
:103FA000681E00EB40001FFA80F9A24909F10200E7
:103FB000085C00F0600A4FEA6A1A09F10200085C26
:103FC00000F01F0BBAF1010F04D1ABF1010000F0BA
:103FD000FF0803E00BF11E0000F0FF080A2C07DACF
:103FE000601E9549095C05980844401E86B208E0A9
:103FF000A4F10A00914931F8101005980844401EB8
:1040000086B2022C08DDE91705EB91718910A5EB4A
:10401000810109B9701C86B246453EDBA6EB08005B
:1040200086B20124012002900020009049460298A7
:10403000FFF704FF10B94FF01D0A01E04FF01E0A10
:104040007C4911F80900C11700EB11714FEA211BDF
:104050001DE0A6EB0A0086B20298401CC0B2029096
:104060005C4508D10098C043C0B20090009820B9C8
:10407000601CC4B201E0601CC4B249460298FFF75C
:10408000DDFE10B94FF01D0A01E04FF01E0A564543
:10409000DFDA701CC0B205904FE0A8EB060000F01C
:1040A000FF081DB963251320019001E0681EC5B209
:1040B000A9F103001FFA80F90C245E4911F80900E8
:1040C000C11700EB11714FEA211BBBF1000F02D1A8
:1040D0000C20029001E00D20029000200090494643
:1040E0000298FFF7ABFE10B94FF01D0A01E04FF048
:1040F0001E0A1BE0A8EB0A0000F0FF080298401E11
:10410000C0B20290009808B9601EC4B25C4503D1E9
:104110000098C043C0B2009049460298FFF78EFE57
:1041200010B94FF01D0A01E04FF01E0AD045E1DC46
:10413000AAEB0800401CC0B20590019807F8010BDB
:1041400007F8015B07F8014B0598387001201AE762
:1041500010B50A46B0F5F86F09DBA0F5F86398B220
:104160003C2390FBF3F403FB1403D9B20AE0C0F53F
:10417000F86398B23C2390FBF3F403FB1403C3F100
:104180003C03D9B2117010BD10B5002305E011F841
:10419000014B00F8014B5C1CA3B29342F7DB10BD4E
:1041A0002DE9FC4105460E4617461C460F2224A168
:1041B0002046FFF7E9FF01AB3A4631462846FFF7B4
:1041C000CAFE08B9BDE8FC819DF805209DF80410E1
:1041D00001EBC10303EB011102EB81006946FFF71C
:1041E000B7FF9DF800000A2190FBF1F201FB1200DD
:1041F000174951F82080022241462046FFF7C4FFAC
:104200009DF800000C2190FBF1F201FB1200114916
:1042100051F8208002224146A01CFFF7B5FF9DF80F
:10422000060001281AD102220BA1A01DFFF7ACFF46
:104230001EE00000AE570008B45A0008BE5A00083D
:10424000BCD7D7D3C4EAD5FDD4C2B3F5D2BB0000E6
:10425000F40100201C020020D5FD00009DF806009E
:10426000401E8C4A52F820100222A01DFFF78CFF3E
:104270009DF807000A280EDD9DF807000A2190FB33
:10428000F1F0854951F820800222414604F10A00EC
:10429000FFF77AFF05E0022280A104F10A00FFF790
:1042A00073FF9DF80700401E0A2190FBF1F201FB0D
:1042B0001200784951F820800222414604F10C0096
:1042C000FFF762FF00BF7DE72DE9F04104460D4690
:1042D000B4F5FA6F03DB40F60200844202DD0020F1
:1042E000BDE8F0810DB10C2D01DD0020F8E7681E5E
:1042F0004006010E0F2A01DB481CC1B208464FEAF6
:10430000E17C01EB5C7C4FEAEC08A4F5FA6C0CEB69
:104310004C0CC444DFF8888118F80C604FEAE17C4B
:1043200001EB5C7C4FEAEC0CA1EBCC0C06FA0CFC2C
:104330000CF080075B48405C187097B1012905D0EC
:104340000B2903D0122901D0152907D140F2FC70A6
:10435000844203DA1878401C187002E01878401E76
:1043600018700120BCE72DE9F8430546884614463D
:104370001E466B46224641462846FFF7A5FF10B968
:104380000020BDE8F883A8F101004006070E0F2CBD
:1043900001DB781CC7B29DF80000844208D1424876
:1043A00050F8271005223046FFF7EEFE0120E8E71F
:1043B0000F223EA13046FFF7E7FE9DF80000844241
:1043C0000BDA394850F827100422B01CFFF7DCFE46
:1043D0009DF80000001BC4B24DE0781C172801DDD9
:1043E0000020CEE7304A781C52F820100422B01C7E
:1043F000FFF7CAFE0F2C0ADA6B460F224146284609
:10440000FFF762FF9DF80000001BC4B233E0A8F183
:1044100001002A4911F80090B8F1020F17D1E917ED
:1044200005EB91718910A5EB810181B9642195FBA0
:10443000F1F201FB125131B94FF4C87195FBF1F261
:1044400001FB125119B909F1010000F0FF0908F14F
:104450000100C0B280460D2801D14FF001086B4623
:10446000012241462846FFF72FFFA9EB04009DF8E3
:1044700000100844C4B20A2094FBF0F03030B0724F
:104480000A2094FBF0F100FB11403030F072012063
:1044900077E700004C0200207C020020B3F500000A
:1044A000035A00089C5A000894010020C0EBC1A2E6
:1044B000B6ACBBB9D3D03F3FCCEC0000D05A00081B
:1044C000F0B58DB004463022714901A800F032FEEB
:1044D0006069451E642195FBF1F12846EA1705EB5A
:1044E0009272C1EBA2014FF4C87295FBF2F28F18E1
:1044F0006069C11700EB91718910A0EB810191B93E
:104500006422616991FBF2F302FB131131B992004D
:10451000616991FBF2F302FB131121B921690229B0
:1045200001DD012600E0002640F26D1005FB007160
:104530002069401E01AA52F820000844E16808449E
:104540000644072096FBF0F100FB1160A0610DB05E
:10455000F0BD10B501460869801E0861002805DC21
:1045600008690C3008614869401E48616423486945
:1045700090FBF3F04A69D31702EB9373C0EBA300EF
:104580004FF4C87492FBF4F3034440F26F140869CB
:1045900060430C2490FBF4F01844CB68034440F2D1
:1045A0006D1402FB04303B4BC01A00EB40008B68DB
:1045B00003EBC000C0EB00104B6803EB8000C0EBC6
:1045C00000100B6803EB8000A0F5E14010BD2DE961
:1045D000F04107460C463048B7FBF0F6B7FBF0F168
:1045E00000FB11784FF4616098FBF0F0A0604FF48D
:1045F000616098FBF0F100FB11803C2190FBF1F031
:1046000060604FF4616098FBF0F100FB11803C2189
:1046100090FBF1F201FB1200206040F2B27509E05C
:1046200005F0030010B94FF4B77001E040F26D10CF
:10463000361A6D1C05F0030010B94FF4B77001E095
:1046400040F26D10B042EBDD65616069C11700EBAF
:1046500091718910A0EB810111B91D200F494860AB
:10466000012505E0681E0D4951F82000361A6D1C21
:10467000681E0A4951F82000B042F3DD1C20486052
:104680002561701CE0602046FFF71AFFBDE8F0814D
:10469000DC5A00088BFA0A00805101008C020020CD
:1046A000002001E0411CC8B20A28FBDB704710B5AE
:1046B00080206949086040200860FFF7F1FF8020F2
:1046C0006549091D0860FFF7EBFF40206249091D9D
:1046D0000860FFF7E5FF10BD10B580205E49091D99
:1046E00008604020091F0860FFF7DAFF80205A4960
:1046F000086010BD70B50446002520E004F080007D
:1047000018B180205449086003E080205249091DF7
:104710000860FFF7C5FF40204F490860FFF7C0FF62
:1047200040204D49091D0860072D02D18020091F36
:1047300008606006040EFFF7B3FF681CC5B2082DC1
:10474000DCDB70BD70B50024002516E06006040EA9
:10475000402041490860FFF7A3FF3F480838006840
:1047600000F0800008B1601CC4B240203A49091D25
:104770000860FFF795FF681CC5B2082DE6DB2046F0
:1047800070BD10B5802034490860FFF789FF4020D4
:1047900031490860FFF784FF2F480838006800F0AF
:1047A000800008B1012400E0002440202A49091DAE
:1047B0000860FFF775FF204610BD10B58020264920
:1047C000091D0860FFF76CFF402023490860FFF7D0
:1047D00067FF40202049091D0860FFF761FF802026
:1047E0001D49086010BD10B580201B490860FFF707
:1047F00057FF402018490860FFF752FF4020164934
:10480000091D0860FFF74CFF10BD08B50121082005
:10481000FCF7ECF9C020ADF8000003208DF8020091
:1048200014208DF8030069460B481038FBF7BCFED6
:10483000FFF752FF08BD70B50446FFF7E6FFFFF72C
:1048400036FF2046FFF756FFFFF79BFF0546FFF7B1
:1048500043FF284670BD0000100C014010B56FF0FA
:104860000400FBF7C0FD2E4800682E49B0FBF1F0B4
:104870002D4908700846007800EB4001C1EBC010DC
:104880004FF6FF7101EAC0002849088010BD0146BB
:10489000254A12784A434FF0E0235A6100229A6178
:1048A0001A46126942F001021A6100BF4FF0E0227D
:1048B000106900F001021AB100F48032002AF5D02C
:1048C0004FF0E022126922F001024FF0E0231A615A
:1048D00000229A6170470146144A12884A434FF0F9
:1048E000E0235A6100229A611A46126942F00102DD
:1048F0001A6100BF4FF0E022106900F001021AB106
:1049000000F48032002AF5D04FF0E022126922F044
:1049100001024FF0E0231A6100229A617047000003
:104920000000002000127A00BC020020BE0200201D
:10493000014600BF704700BF314A128802F04002B2
:10494000002AF9D0C2B22E4B1B1D1A80704710B539
:10495000044600BF20212A48FDF708FB0028F9D0B3
:104960002748FDF799FA10BD10B586B0044601211D
:1049700044F20400FCF73AF94FF40070ADF814006B
:1049800003208DF8160018208DF8170005A91D4882
:10499000FBF70AFE4FF48060ADF8140004208DF898
:1049A000170005A91748FBF7FFFD25208DF800002B
:1049B00000208DF801008DF8020001208DF8030021
:1049C0006846FBF7C6FC01940020ADF80800ADF87E
:1049D0000A00ADF80C00ADF810000C20ADF80E0088
:1049E00001A90748FDF75BF9012240F2255104486F
:1049F000FDF7EDF901210248FDF7DDF906B010BD24
:104A0000003801400008014070B504460D462946B3
:104A10002046FDF73DFA00BF80212046FDF7A6FAAB
:104A20000028F9D070BD70B506460C46002504E09C
:104A3000615D3046FFF7E8FF6D1C204600F08CFBFF
:104A4000A842F5D270BD70B506460C46002504E0BC
:104A5000615D3046FFF7D8FF6D1C204600F07CFBFF
:104A6000A842F5D270BD70B5054600BF202128468A
:104A7000FDF77CFA0028F9D02846FDF70DFAC4B2FC
:104A8000204670BD70B506460D46002406E030464F
:104A9000FFF7E9FF78490855601CC4B2AC42F6DB69
:104AA00070BD00B587B001218804FCF7ACF8012186
:104AB0000820FCF79BF84FF48060ADF81400182034
:104AC0008DF8170003208DF8160005A96B48FBF739
:104AD0006BFD4FF40060ADF8140004208DF8170052
:104AE00005A96648FBF760FD4FF4E1300190002016
:104AF000ADF80800ADF80A00ADF80C00ADF81000F4
:104B00000C20ADF80E0001A95D48FDF7C8F827207C
:104B10008DF8180000208DF819008DF81A0001207A
:104B20008DF81B0006A8FBF714FC012240F225516A
:104B30005348FDF74CF901215148FDF73CF940215C
:104B40004F48FDF720FA07B000BD10B540F22551DF
:104B50004B48FDF721FAC8B14948FDF79DF9C4B2A9
:104B6000EF2C02D1002047490870464800780B28F6
:104B700009DA454843490978445442480078401CC2
:104B80004049087002E000203E49087010BD00B5A1
:104B900087B001214804FCF736F801210520FCF715
:104BA00025F80420ADF8140018208DF81700032014
:104BB0008DF8160005A93548FBF7F6FC0820ADF87E
:104BC000140048208DF8170005A93048FBF7ECFCCD
:104BD0004FF4E13001900020ADF80800ADF80A0074
:104BE000ADF80C00ADF810000C20ADF80E0001A9D6
:104BF0002748FDF754F826208DF8180000208DF87E
:104C000019008DF81A0001208DF81B0006A8FBF78B
:104C1000A0FB012240F225511D48FDF7D8F80121E3
:104C20001B48FDF7C8F840211948FDF7ACF907B05B
:104C300000BD10B540F225511548FDF7ADF9C8B1DA
:104C40001348FDF729F9C4B2EF2C02D10020114915
:104C50000870104800780A2809DA0F480D490978C9
:104C600044540C480078401C0A49087002E00020B7
:104C70000849087010BD000072040020000C0140BB
:104C800000480040C70200208A04002000080140BC
:104C900000440040C80200209504002010B586B0F2
:104CA000044601210805FBF7AEFF01213020FBF788
:104CB0009DFF4FF48050ADF8140018208DF81700B8
:104CC00003208DF8160005A96D48FBF76DFC042044
:104CD000ADF814008DF8170005A96A48FBF764FCCD
:104CE00001940020ADF80800ADF80A00ADF80C0002
:104CF000ADF810000C20ADF80E0001A96248FCF7D9
:104D0000CEFF35208DF8000003208DF801008DF8CE
:104D1000020001208DF803006846FBF71AFB012210
:104D200040F225515848FDF752F801215648FDF749
:104D300042F840215448FDF726F900205349086005
:104D400006B010BD10B5002440F225514E48FDF7C5
:104D500023F9C0B14D480068C8280FDA4A48FDF76A
:104D60009BF8C4B214B94948006838B14748016893
:104D70000068401C454A10604548445440F22551A3
:104D80004148FDF733F908213F48FDF7EFF80128C6
:104D900006D108213C48FDF7F6F83B48FDF77CF8C2
:104DA00010BD70B505460E4600240BE000BF402143
:104DB0003548FDF7DBF80028F9D0295D3248FDF7CA
:104DC00067F8641CB442F1D300BF40212E48FDF7C0
:104DD000CDF80028F9D004E040F227712A48FDF709
:104DE00005F980212848FDF7C1F80028F4D070BDEE
:104DF0002DE9F04105460F46244806680024A046E8
:104E00000A20FFF768FD21480068864213D196B159
:104E100000BF06E01E48005D285500201C490855CB
:104E2000641CB44202DA781EA042F3D80020285550
:104E3000A046164908604046BDE8F08170B51348A9
:104E4000046800250A20FFF746FD16E00F480068B9
:104E500084420DD164B1002503E000200C4948557F
:104E60006D1CA54201DAC72DF7DB00200749086059
:104E70000A20FFF730FD05480468002CE6D170BD1C
:104E8000001001400014014000500040CC020020FE
:104E90009F04002010B586B004460121C804FBF72A
:104EA000B2FE01211020FBF7A1FE4FF48060ADF8A7
:104EB000140018208DF8170003208DF8160005A99E
:104EC0006E48FBF771FB4FF40060ADF8140004204E
:104ED0008DF8170005A96948FBF766FB01940020CF
:104EE000ADF80800ADF80A00ADF80C00ADF8100000
:104EF0000C20ADF80E0001A96148FCF7D0FE34206B
:104F00008DF8000001208DF801008DF802008DF869
:104F100003006846FBF71DFA012240F2255158486C
:104F2000FCF755FF01215648FCF745FF4021544846
:104F3000FDF729F800205349086006B010BD10B5F0
:104F4000002440F225514E48FDF726F8C0B14D48E7
:104F500000680B280FD24A48FCF79EFFC4B214B970
:104F60004848006838B1474801680068401C454A15
:104F700010604548445440F225514148FDF736F849
:104F800008213F48FCF7F2FF012806D108213C48E0
:104F9000FCF7F9FF3A48FCF77FFF10BD70B50546F6
:104FA0000E4600240BE000BF40213548FCF7DEFF31
:104FB0000028F9D0295D3248FCF76AFF641CB4422E
:104FC000F1D300BF40212E48FCF7D0FF0028F9D0D4
:104FD00004E040F227712A48FDF708F880212848AC
:104FE000FCF7C4FF0028F4D070BD2DE9F041054660
:104FF0000F46244806680024A0460A20FFF76BFCF1
:1050000020480068864213D196B100BF06E01E48D2
:10501000005D285500201C490855641CB44202D28A
:10502000781EA042F3D800202855A04615490860F4
:105030004046BDE8F08170B51248046800250A209A
:10504000FFF749FC16E00F48006884420DD164B1B7
:10505000002503E000200C4948556D1CA54201D2F3
:105060000A2DF7D30020074908600A20FFF733FC18
:1050700004480468002CE6D170BD00000010014017
:10508000004C0040D00200206705002038B5D0E970
:105090000221491E01EB410102EBC1014268C1EB53
:1050A000011102EB81010268C1EB011102EB8102E7
:1050B000D0E9043101EB410103EB81013023A1F57B
:1050C000527191FBF3F4174D6C4302EBC41291FB48
:1050D000F3F403FB141100921A2902DB124B1A4459
:1050E00000920C2291FBF2F3104C6343009C04EB02
:1050F000C313009391FBF2F302FB13110C4A08E077
:10510000491E40F2A324535C6343009C04EBC31389
:1051100000930029F4DC0146684600F055F8009839
:1051200038BD00003F0C0F008051010067C2030032
:105130000C5B000840EA01039B0703D009E008C9A3
:10514000121F08C0042AFAD203E011F8013B00F84C
:10515000013B521EF9D27047421C10F8011B002976
:10516000FBD1801A70472DE9F05F0546002092467A
:105170009B4688460646814640241BE02846414619
:105180004746224600F087F853465A46C01A9141D6
:1051900010D311461846224600F06EF82D1A67EB20
:1051A00001084F4622460120002100F065F817EB68
:1051B00000094E41201EA4F10104DFDC48463146BF
:1051C0002A464346BDE8F09F10B500683C22B0FB7C
:1051D000F2F302FB1303B0FBF2F00B60B0FBF2F34F
:1051E00002FB1303B0FBF2F018224B60B0FBF2F3AA
:1051F00002FB1303B0FBF2F0021D8B600723B2FB2E
:10520000F3F403FB1422800040F2B55300F66C3037
:105210008A61B0FBF3F2B0FBF3F403FB14004432F9
:1052200080084A61C8613B2802D3920700D0401C25
:105230000022074C13460A61E25C824203D8801ABE
:105240005B1C0B61F8E7401CC860084610BD0000FD
:10525000185B0008064C074D06E0E06840F00103CB
:1052600094E8070098471034AC42F6D3FAF764FF8D
:10527000F85C0008185D0008202A04DB203A00FAD8
:1052800002F1002070479140C2F1200320FA03F39D
:10529000194390407047202A04DB203A21FA02F09B
:1052A0000021704721FA02F3D040C2F12002914060
:1052B00008431946704770B58C1810F8015B15F05B
:1052C000070301D110F8013B2A1106D110F8012B78
:1052D00003E010F8016B01F8016B5B1EF9D12B079D
:1052E00005D40023521E0DD401F8013BFAE710F853
:1052F000013BCB1A921C03E013F8015B01F8015B40
:10530000521EF9D5A142D8D3002070BD0FB4054B71
:1053100010B503A9044A029800F018F810BC5DF813
:1053200014FB000037490008C002002002E008C852
:10533000121F08C1002AFAD170477047002001E00F
:1053400001C1121F002AFBD1704700002DE9FF4F59
:105350008DB00F460546002606E025280BD0DDE976
:105360000F1290476D1C761C28780028F5D111B0DB
:105370003046BDE8F08F0024A246A1460122EC4948
:1053800000E0044315F8013F203B02FA03F0084215
:10539000F7D128782A2810D06FF02F022878A0F1B2
:1053A0003001092914D80AEB8A0102EB410144F0CB
:1053B000020400EB010A6D1CF0E701CF5FEA000A6E
:1053C00003D544F40054CAF1000A44F002046D1CF1
:1053D00028782E2817D115F8010F44F004042A2844
:1053E0000ED06FF02F022878A0F1300109290AD8D9
:1053F00009EB890102EB410100EB01096D1CF2E7A9
:1054000057F8049B6D1C28786C280FD006DC4C28BC
:1054100017D068280DD06A2814D104E0742810D061
:105420007A280FD10DE044F400140AE044F480140B
:1054300001E044F440146978814202D104F58014FB
:105440006D1C6D1C2A786E2A1FD00CDC632A31D0AB
:1054500004DC002A8BD0582A11D1A3E0642A68D03A
:10546000692A0CD165E0732A2ED004DC6F2A73D030
:10547000702A04D19BE0752A6FD0782A6ED010462E
:10548000DDE90F129047761C50E1C4F30250022868
:1054900006D0032809D0042801CF09D0066045E1D1
:1054A00001CFF117C0E9006140E101CF06803DE185
:1054B00006703BE117F8040B8DF8000000208DF812
:1054C0000100EB46012003E057F804BB4FF0FF302A
:1054D00061074FF0000102D40DE008F10101884698
:1054E00049450FDA8045F8DB1BF808100029F4D194
:1054F00008E008F1010188468142FADB1BF8081038
:105500000029F6D1DDE90F23AAEB080081462146E8
:1055100000F036F9304400EB080604E0DDE90F1234
:105520001BF8010B9047B8F10108F7D22146484615
:10553000F7E00A21C4F302534FF0000B0891022B4D
:1055400004D001CFC117032B09D00AE0FF1D27F0BB
:105550000707F7E8020108E032E01FE020E000B2B0
:10556000C117042B01D140B2C117031E71F1000312
:1055700007DA4FF0000CD0EB0C006CEB01012D238F
:1055800002E0230504D52B238DF82430012303E00A
:10559000E30701D02023F7E7984658E00A2110E0FE
:1055A00010210EE010204FF0000B08900CE01021AD
:1055B0004FF0000B44F004044FF00809089103E099
:1055C00008214FF0000B0891C4F30253022B04D0C2
:1055D00001CF0021032B06D006E0FF1D27F00707AF
:1055E000F7E8020103E080B2042B00D1C0B24FF013
:1055F000000823072BD5702A07D0DDF820C08CF0D7
:10560000100C5CEA0B0C05D00EE040238DF8243022
:10561000012308E050EA010306D030238DF824303E
:105620008DF8252002239846DDF820C08CF0080C68
:105630005CEA0B0C0BD150EA010301D1630706D5DC
:1056400030238DF824304FF00108A9F10109582AC0
:1056500004D038A20B9208AA0A920BE03AA2F9E70A
:105660005B46089AFFF77FFD0B9B9B5C0A9A521ED4
:105670000A92137050EA0102F2D10A98ADEB0000D1
:1056800000F1200B600702D524F4803401E04FF0D4
:105690000109D94502DDA9EB0B0000E0002000EB79
:1056A0000B0141440890AAEB010AE00306D4DDE9AE
:1056B0000F232146504600F063F806444FF00009DE
:1056C00008E009A911F80900DDE90F12904709F176
:1056D0000109761CC145F4DBE0030CD5DDE90F239D
:1056E0002146504600F04CF8064404E0DDE90F1274
:1056F00030209047761C0899481E08900029F5DC58
:1057000008E00A980A990078491C0A91DDE90F120D
:105710009047761CBBF10001ABF1010BF1DC214697
:105720005046DDE90F2300F019F806446D1C1BE616
:105730000928010030313233343536373839616267
:10574000636465660000000030313233343536372B
:105750003839414243444546000000002DE9F041FC
:10576000044600251E461746880404D405E0394641
:105770002020B0476D1C641EF9D52846BDE8F08195
:105780002DE9F041044600251E469046C80301D588
:10579000302700E02027880404D505E0414638463C
:1057A000B0476D1C641EF9D52846BDE8F08104AEF3
:1057B000530A57485526BD0D26500D954446AAB9A3
:1057C000056A4D09AD4224AEB604AE4A6A4DBE0A22
:1057D0004D520D25465D52BA0B544E0D6A43296D4C
:1057E00037095B4B749BC10497540A4B485B25BC3B
:1057F00006A55006D4454ADAB802B64D09574224E8
:1058000097B704974A664B3E0D4A510EA54656D4AB
:10581000BA05AD4E02B644393738092E4B7C96BFD7
:105820000C95530D4A486DA53B0B554F056A454AEB
:10583000ADB9025D4D092D422C95B60A954A7B4AB9
:10584000BD06CA510B5546555ABB04DA4E0A5B4396
:10585000352BB8052B4C8A953F0E955206AA487AEF
:10586000D53C0AB54F04B6454A57390A574D052667
:10587000423E93350D954975AABE056A51096D469C
:1058800054AEBB04AD4F0A4D434D26B70D254B8D8D
:1058900052BF0B54520B6A47696D3C095B50049B25
:1058A000454A4BB90A4B4DAB25C206A55406D4490F
:1058B0006ADA3D0AB6510937465497BB04974F063A
:1058C0004B4436A5370EA54A86B2BF05AC530AB67F
:1058D000475936BC092E500C96454D4AB80D4A4CD6
:1058E0000DA54125AAB6056A497AADBD025D5209EA
:1058F0002D475C95BA0A954E0B4A434B55370AD54E
:105900004A955ABF04BA530A5B48652BBC052B5015
:105910000A9345474AB906AA4C0AD54124DAB60487
:10592000B64A69573D0A4E510D26465E933A0D53CD
:105930004D05AA4336B537096D4BB4AEBF04AD5320
:105940000A4D486D25BC0D254F0D52445DAA380BFC
:105950005A4C056D4124ADB6049B4A7A4BBE0A4BA6
:10596000510AA5465B52BA06D24E0ADA42355B3777
:1059700009374B8497C1049753064B4866A53C0EE4
:10598000A54F06B2444AB6380AAE4C092E423C979F
:10599000350C96497D4ABD0D4A510DA54555AABA0B
:1059A000056A4E0A6D43452EB7052D4B8A95BF0AF1
:1059B00095530B4A476B553B0AD54F055A454A5DEF
:1059C000380A5B4C052B423A93B60693497729BDBA
:1059D00006AA510AD54654DABA04B64E0A574345C8
:1059E00027380D264A8E933E0D52520DAA4766B5B2
:1059F0003B056D4F04AE454A4EB90A4D4C0D15415D
:105A00002D92B54EA6999CA2988000180010244EA5
:105A1000A6999CA2988082180010244EA6D99EA216
:105A2000988082180010044EE6D99EA6A88082189D
:105A30000010000FE6D9BEA6988882188000000FDB
:105A4000EFD9BEA6998C82988000000FEFDBBEA62E
:105A5000999CA2988000180FEFDBBEA6999CA29893
:105A60008000180FEFDBBEA2998CA0988082180BE3
:105A7000EFDBBEA6998CA2988082180FEFDBBEE602
:105A8000D99EA2988082180FEFFBBFE6D99EA698F8
:105A90008082180FFFFFFCEFD9BEA618061404136E
:105AA0000615051406150615071708170817081810
:105AB00008160716001F3B5A7897B5D4F30011015A
:105AC00030014E0100030306010406020500030530
:105AD0001F1C1F1E1F1E1F1F1E1F1E1F0000000059
